:06000300010B00010A00E0
:10020D00438901758CFC758A18D2A9D2AFD28C2284
:0A01F8001201CB75807E7F647E004B
:0B020200EF1FAC0670011E4C70F622CE
:0201CB00AD077E
:1001CD00E4FB74807E00A803088006CEA2E713CE60
:1001DD0013D8F8FFEDF582EF558224FF92B4D2B615
:0A01ED00C2B60BBB08DCD2B5C2B5E8
:0101F70022E5
:03000E0012020DCE
:10001100E4F50CE50B146037146051146062147040
:10002100030200D61470030200F2240560030201EA
:10003100057F811201CBE4F5807FE87E0312020285
:100041007FFF1201CB7580EF7FE87E030201027F03
:10005100FF1201CB75807F7FE87E031202027F01D0
:100061001201CBE4F5807F64FE0201027F7E120162
:10007100F87F811201CB7580817F647E00020102CD
:100081007F40A80CEF08800103D8FDFF1201CB7F50
:100091007FA80CEF08800103D8FDF5801201FE0551
:1000A1000CE50CC3940440D8E4F50C7F08A80CEFD0
:1000B10008800123D8FDFF1201CB7FEFA80CEF08C8
:1000C100800103D8FDF5801201FE050CE50CC394F7
:1000D1000440D8802F7F911201CBE4F5807F64FE2C
:1000E1001202027FFF1201CB75807F7F647E008048
:1000F100107FFF1201F87F011201CBE4F5807F64CC
:07010100FE1202027580FFEF
:03010800020011E1
:03000B0002019758
:06019700C0E0C0F0C0D082
:10019D00758CFC758A180509E50970020508B4BC53
:1001AD0016E508B40211050BE50B75F0068485F014
:0701BD000B75080075090035
:0701C400D0D0D0F0D0E032F2
:0300000002010BEF
:0C010B00787FE4F6D8FD75810C020152EB
:1001170002000EE493A3F8E493A34003F68001F2F0
:1001270008DFF48029E493A3F85407240CC8C333E9
:10013700C4540F4420C8834004F456800146F6DFB8
:10014700E4800B0102040810204080900003E47E45
:10015700019360BCA3FF543F30E509541FFEE493AD
:10016700A360010ECF54C025E060A840B8E493A374
:10017700FAE493A3F8E493A3C8C582C8CAC583CA9F
:10018700F0A3C8C582C8CAC583CADFE9DEE780BE57
:0100090000F6
:00000001FF
